{
  "contractName": "IPFSstorage",
  "abi": [
    {
      "inputs": [
        {
          "internalType": "address",
          "name": "",
          "type": "address"
        }
      ],
      "name": "metadataURLs",
      "outputs": [
        {
          "internalType": "string",
          "name": "",
          "type": "string"
        }
      ],
      "stateMutability": "view",
      "type": "function",
      "constant": true
    },
    {
      "inputs": [
        {
          "internalType": "string",
          "name": "_metadataURL",
          "type": "string"
        }
      ],
      "name": "setFile",
      "outputs": [],
      "stateMutability": "nonpayable",
      "type": "function"
    }
  ],
  "bytecode": "0x608060405234801561001057600080fd5b506104b5806100206000396000f3fe608060405234801561001057600080fd5b50600436106100365760003560e01c80638d10aa691461003b578063e423c1581461006b575b600080fd5b61005560048036038101906100509190610284565b610087565b604051610062919061034a565b60405180910390f35b610085600480360381019061008091906103d1565b610127565b005b600060205280600052604060002060009150905080546100a69061044d565b80601f01602080910402602001604051908101604052809291908181526020018280546100d29061044d565b801561011f5780601f106100f45761010080835404028352916020019161011f565b820191906000526020600020905b81548152906001019060200180831161010257829003601f168201915b505050505081565b81816000803373ffffffffffffffffffffffffffffffffffffffff1673ffffffffffffffffffffffffffffffffffffffff1681526020019081526020016000209190610174929190610179565b505050565b8280546101859061044d565b90600052602060002090601f0160209004810192826101a757600085556101ee565b82601f106101c057803560ff19168380011785556101ee565b828001600101855582156101ee579182015b828111156101ed5782358255916020019190600101906101d2565b5b5090506101fb91906101ff565b5090565b5b80821115610218576000816000905550600101610200565b5090565b600080fd5b600080fd5b600073ffffffffffffffffffffffffffffffffffffffff82169050919050565b600061025182610226565b9050919050565b61026181610246565b811461026c57600080fd5b50565b60008135905061027e81610258565b92915050565b60006020828403121561029a5761029961021c565b5b60006102a88482850161026f565b91505092915050565b600081519050919050565b600082825260208201905092915050565b60005b838110156102eb5780820151818401526020810190506102d0565b838111156102fa576000848401525b50505050565b6000601f19601f8301169050919050565b600061031c826102b1565b61032681856102bc565b93506103368185602086016102cd565b61033f81610300565b840191505092915050565b600060208201905081810360008301526103648184610311565b905092915050565b600080fd5b600080fd5b600080fd5b60008083601f8401126103915761039061036c565b5b8235905067ffffffffffffffff8111156103ae576103ad610371565b5b6020830191508360018202830111156103ca576103c9610376565b5b9250929050565b600080602083850312156103e8576103e761021c565b5b600083013567ffffffffffffffff81111561040657610405610221565b5b6104128582860161037b565b92509250509250929050565b7f4e487b7100000000000000000000000000000000000000000000000000000000600052602260045260246000fd5b6000600282049050600182168061046557607f821691505b602082108114156104795761047861041e565b5b5091905056fea264697066735822122041290de7ea8d7891a07d9ea9f2381eec85f7b62693283fe5a41aa09547b8ef6764736f6c634300080a0033",
  "immutableReferences": {},
  "source": "// SPDX-License-Identifier: MIT\npragma solidity >=0.4.22 <0.9.0;\n\ncontract IPFSstorage {\n  mapping(address => string) public metadataURLs;\n\n  function setFile(string calldata _metadataURL) external {\n    metadataURLs[msg.sender] = _metadataURL;\n  }\n}\n",
  "sourcePath": "C:/Rula01/01_Lernen/MyProjects/ipfsBasics/contracts/IPFSstorage.sol",
  "compiler": {
    "name": "solc",
    "version": "0.8.10+commit.fc410830.Emscripten.clang"
  },
  "schemaVersion": "3.3.4",
  "updatedAt": "2022-09-17T07:49:14.076Z",
  "networkType": "ethereum",
  "devdoc": {
    "kind": "dev",
    "methods": {},
    "version": 1
  },
  "userdoc": {
    "kind": "user",
    "methods": {},
    "version": 1
  }
}